:100000000C94A9000C94D1000C94D1000C94D10054
:100010000C94D1000C94D1000C94D1000C94D1001C
:100020000C94D1000C94D1000C94D3020C94450391
:100030000C94D1000C94D1000C94D1000C94D100FC
:100040000C94D1000C94D1000C94D1000C94D100EC
:100050000C9462080C94D1000C94D1000C941808F4
:100060000C94D1000C94C1070C949B070C94D10004
:100070000C94D1000C94D1000C94D1000C94D100BC
:100080000C94D1000C94D1000C94D1000C94D100AC
:100090000C94D1000C94D1000C94D1000C94D1009C
:1000A0000C94D1000C94D1000C94D10082058405ED
:1000B000860588058A058C058E05900592059405B0
:1000C00096059805EC05EE05F005F205F405F60534
:1000D000F805FA05FC05FE0500060206080B0002FD
:1000E00002020100090400000102020000052400D0
:1000F0001001052401010104240206052406000163
:100100000705810310004009040100020A000000F5
:1001100007050202400000070583024000000403B7
:10012000090412010002EF0201404F1B0692000178
:1001300001020301537061726B46756E005370616A
:10014000726B46756E2050726F204D6963726F003E
:10015000890811241FBECFEFDAE0DEBFCDBF11E06A
:10016000A0E0B1E0EAE9F6E102C005900D92AC33FF
:10017000B107D9F722E0ACE3B1E001C01D92A13A8A
:10018000B207E1F710E0C9EAD0E004C02197FE0110
:100190000E942C0BC83AD107C9F70E940A090C9497
:1001A0004B0B0C940000FC0180914401811103C0B1
:1001B0008FEF9FEF08959FB7F89482E08093E90056
:1001C0002091F20030E01216130614F421E030E022
:1001D0002115310559F0289884E6809343018091D8
:1001E000F10080838091F200882319F09FBFC9013C
:1001F00008958BE68093E800F9CF2FB7F89483E059
:100200008093E9009091E800892F807295FF04C0E7
:100210009091F20080E4891B2FBF08958091E7013F
:1002200081110DC082E08093E30184E08093E401BA
:100230001092E6011092E50181E08093E70183EEE0
:1002400091E00895CF93DF931F92CDB7DEB7698316
:10025000DC01ED91FC910280F381E02D41E050E062
:10026000BE016F5F7F4F09950F90DF91CF91089589
:1002700083E08093E9008091F200882319F08AE3FB
:100280008093E80008950E94FD0090E00895CF93C8
:10029000DF931F92CDB7DEB7FC018485958597FD6E
:1002A00005C02FEF3FEF358724870BC0CE010196A5
:1002B0000E94D300019719F4898190E002C08FEF6A
:1002C0009FEF0F90DF91CF9108950F931F93CF93DE
:1002D000DF931F92CDB7DEB78C01FC018485958535
:1002E00097FF0EC0CE0101960E94D300019719F42A
:1002F000298130E002C02FEF3FEFF80135872487D6
:10030000F801848595850F90DF91CF911F910F9112
:100310000895FC018485958597FD0BC09FB7F894DF
:1003200082E08093E9008091F2009FBF90E0019607
:1003300008959FB7F89482E08093E9008091F200DD
:100340009FBF90E00895CF92DF92EF92FF920F93BC
:100350001F93CF93DF931F92CDB7DEB7182F062FD1
:10036000E42E862F880F8E5F99830E94600783E0BA
:100370000E946007F12EC12E9981D92E8C2D8F19E4
:10038000801798F4F601E7FE02C0849101C08081D5
:100390000E946007182F80E00E9460078123FFEF12
:1003A000CF1ADF0A8111EACF01C081E00F90DF91FF
:1003B000CF911F910F91FF90EF90DF90CF90089514
:1003C000DF92EF92FF920F931F93CF93DF93D82E7C
:1003D0008A017B01E40EF51EEB01CE15DF0571F0FD
:1003E000D7FE03C0FE01849101C088810E9460078E
:1003F00021968111F2CF8FEF9FEF01C0C801DF91ED
:10040000CF911F910F91FF90EF90DF9008950F9380
:100410001F93CF93DF931F92CDB7DEB782E089831E
:1004200042E450E06CED70E080E80E94E0010E9440
:100430000E01DC0112960D911C9113970115110507
:1004400069F0D801ED91FC910280F381E02DBE01AD
:100450006F5F7F4FC801099597FF07C089810F9093
:10046000DF91CF911F910F910895F80100851185BB
:10047000E5CFCF92DF92EF92FF920E94F3076B01DC
:100480007C010E94F307DC01CB018C199D09AE09A8
:10049000BF09883E9340A105B10598F3FF90EF9006
:1004A000DF90CF9008958F929F92AF92BF92CF929C
:1004B000DF92EF92FF920F931F93CF93DF936C0124
:1004C0005B017A0180910B01882309F456C0809169
:1004D0004401882309F451C08091420180FF05C086
:1004E0008091E00082608093E000E70110E00AEF75
:1004F00083E0882E9AE3992E2097B1F10E94FD00A7
:10050000811105C00150C9F10E943902F5CF282F91
:1005100030E0C217D3070CF48C2F4FB7F8948092B9
:10052000E9009091E80095FF1DC0282F30E0C21B24
:10053000D30BF501982F915020F081918093F10019
:10054000FACFA20EB31E112319F09092E80009C051
:100550008091E80085FD06C09092E80011E02097A8
:1005600009F010E04FBFC8CF1111C8CF5D9884E6E5
:100570008093E2011E141F0444F081E090E0F60134
:100580009383828380E090E001C0C701DF91CF9127
:100590001F910F91FF90EF90DF90CF90BF90AF90A1
:1005A0009F908F9008951F920F920FB60F92112473
:1005B0008F939F938091E1009091E100937F9093BE
:1005C000E10083FF0FC01092E90091E09093EB00EF
:1005D0001092EC0092E39093ED001092440198E0A9
:1005E0009093F00082FF20C093E09093E9009091F7
:1005F000F200992319F09AE39093E8009091E201B8
:10060000992339F09091E20191509093E20199235E
:1006100089F190914301992339F0909143019150D0
:1006200090934301992341F184FF10C08091E2002F
:100630008E7E81608093E2008091E1008F7E8093C6
:10064000E100809142018E7E806111C080FF16C062
:100650008091E2008E7E80618093E2008091E100D3
:100660008E7E8093E100809142018E7E8160809336
:10067000420104C05D9ACDCF289AD6CF9F918F9129
:100680000F900FBE0F901F9018951F920F920FB6EC
:100690000F921124CF92DF92EF92FF920F931F934C
:1006A0002F933F934F935F936F937F938F939F937A
:1006B000AF93BF93EF93FF93CF93DF93CDB7DEB7A5
:1006C0006C97DEBFCDBF1092E9008091E80083FFF8
:1006D000EDC168E0CE0145960E948E0782EF8093BF
:1006E000E8008D8987FF05C09091E80090FFFCCF5E
:1006F00003C09EEF9093E800982F907609F0C6C053
:100700009E892F89188D91110CC0803829F4809111
:1007100041018093F10002C01092F1001092F100AB
:1007200048C1422F50E0512B913051F4811141C109
:100730004130510509F03DC1809141018D7F0BC0D1
:10074000933061F4811135C14130510509F031C157
:10075000809141018260809341012BC1953041F429
:100760008091E80080FFFCCF20682093E30021C146
:10077000963009F05FC0EB8CFC8C1092E90010926F
:100780003F0110923E01123091F510923D011092FE
:100790003C010E94070299E0BE016F5F7F4FDB01C1
:1007A000E92F1D92EA95E9F799831A8391E09E83D8
:1007B00090EA98879AEF998720913E0130913F0106
:1007C000275F3F4F3C832B838D831092E90010926B
:1007D0003F0110923E01F0923D01E0923C0149E060
:1007E00050E080E00E94E0010E940702E2C0F09227
:1007F0003D01E0923C010E940E01DC011296ED9059
:10080000FC901397E114F10409F4C0C0D701ED91F5
:10081000FC910480F581E02DBE016B5E7F4FC70126
:100820000995009719F00CF0C4C0C7C0F701E08427
:10083000F184E8CF973009F4C0C0983021F481E00A
:100840008093F100B6C0993009F0B3C0837009F00D
:10085000B4C0E1E1F1E081E021E036E39081992349
:1008600061F08093E9002093EB0091919093EC006C
:100870003093ED008F5F873089F78EE78093EA0031
:100880001092EA008F898093440193C08B8D9C8DD8
:100890001092E90010923F0110923E0190933D01A9
:1008A00080933C01898D811156C08E899D89913A32
:1008B00059F4813209F081C047E050E064E071E012
:1008C00080E00E94E00175C0913209F076C0833269
:1008D00089F4888D90E0982F88272F89822BA0E0BB
:1008E000B0E08093000190930101A0930201B093C6
:1008F00003015FC0803269F48091E80082FFFCCF81
:1009000067E084E091E00E948E078BEF8093E8001F
:1009100006C0823209F04DC08F8980930B0180910F
:100920004001882319F0EEEFFAE002C0E0E0F8E0C1
:100930008091040190910501A0910601B0910701F9
:10094000803B9440A105B10509F07BC080910B016B
:1009500080FF93C076C00E940E01DC0112960D91BB
:100960001C9113970115110541F1D801ED91FC91EE
:100970000190F081E02DBE016B5E7F4FC8010995AB
:10098000811117C0F80100851185ECCF113009F4F1
:100990004EC0133091F48F89882309F445C082300A
:1009A00081F440E862E18DE391E00E94A301882395
:1009B00021F08EEF8093E80079C081E28093EB0014
:1009C00075C0813029F440E868E084E391E0EDCF20
:1009D000833099F70E940E01DC011296ED90FC9095
:1009E00013978E010F5F1F4F6801E114F10479F036
:1009F000D701ED91FC910680F781E02DB801C70188
:100A00000995080F111DF701E084F184EECFD8019C
:100A10001C92F60101900020E9F73197BF016C1993
:100A20007D0940E0C601C1CF6EE171E002C062E223
:100A300071E06115710509F2FB01449150E080E815
:100A400040CF0FB6F894A89580916000886180939C
:100A50006000109260000FBEA895EE3F2AE0F207FA
:100A600039F08091FE0A9091FF0A91838083A1CF93
:100A70001092FF0A1092FE0A9CCFEE3F8AE0F80720
:100A800031F0808191819093FF0A8093FE0A87E77D
:100A900097E7918380839BE088E10FB6F894A8954F
:100AA000809360000FBE9093600083CF6C960FB66A
:100AB000F894DEBF0FBECDBFDF91CF91FF91EF91D4
:100AC000BF91AF919F918F917F916F915F914F9166
:100AD0003F912F911F910F91FF90EF90DF90CF905A
:100AE0000F900FBE0F901F90189580915F02482FB6
:100AF00050E04C30510508F01CC0FA01EA5AFF4F93
:100B00000C942C0B5F9815C0769813C02C9811C0CC
:100B10002D980FC02E980DC02A980BC02B9809C095
:100B2000299807C08F9805C08E9803C08D9801C082
:100B30008C988F5F8C3019F080935F020AC01092FE
:100B40005F0280910C018F5F893008F081E0809313
:100B50000C01E0915F0220910C0184E0E89FA0016C
:100B6000112480E090E0DC01A40FB51FA059BD4F17
:100B70003C91231788F48230910551F08330910520
:100B800049F08130910511F0599816C0589814C059
:100B90005C9812C0469810C08230910551F08330A5
:100BA000910549F08130910511F0599A05C0589A84
:100BB00003C05C9A01C0469A01968430910509F001
:100BC000D2CF8E2F90E08C30910508F01CC0FC0134
:100BD000EE59FF4F0C942C0B5F9A0895769A089566
:100BE0002C9A08952D9A08952E9A08952A9A089578
:100BF0002B9A0895299A08958F9A08958E9A0895A8
:100C00008D9A08958C9A0895CF92DF92EF92FF9279
:100C10000F931F93CF93DF936C017A018B01C0E098
:100C2000D0E0CE15DF0589F0D8016D918D01D60198
:100C3000ED91FC910190F081E02DC6010995892B81
:100C400011F47E0102C02196ECCFC701DF91CF9154
:100C50001F910F91FF90EF90DF90CF90089508952E
:100C600080E090E00895FC01538D448D252F30E005
:100C7000842F90E0821B930B541710F0CF960895A9
:100C800001970895FC01918D828D981761F0828DF6
:100C9000DF01A80FB11D5D968C91928D9F5F9F73B0
:100CA000928F90E008958FEF9FEF0895FC01918D52
:100CB000828D981731F0828DE80FF11D858D90E0BF
:100CC00008958FEF9FEF0895FC01918D228D892F5C
:100CD00090E0805C9F4F821B91098F739927089544
:100CE00085E491E00E94640621E0892B09F420E06C
:100CF000822F0895FC01848DDF01A80FB11DA35A36
:100D0000BF4F2C91848D90E001968F739927848F2B
:100D1000A689B7892C93A089B1898C9180648C9322
:100D2000938D848D981306C00288F389E02D80810D
:100D30008F7D80830895EF92FF920F931F93CF933F
:100D4000DF93EC0181E0888F9B8D8C8D981305C01B
:100D5000E889F989808185FD24C0F62E0B8D10E08D
:100D60000F5F1F4F0F731127E02E8C8DE8120CC000
:100D70000FB607FCFACFE889F989808185FFF5CFA6
:100D8000CE010E947A06F1CF8B8DFE01E80FF11D96
:100D9000E35AFF4FF0820B8FEA89FB8980818062E2
:100DA00007C0EE89FF896083E889F98980818064C2
:100DB000808381E090E0DF91CF911F910F91FF90B0
:100DC000EF900895CF93DF93EC01888D8823C9F0CD
:100DD000EA89FB89808185FD05C0A889B9898C9144
:100DE00086FD0FC00FB607FCF5CF808185FFF2CFDF
:100DF000A889B9898C9185FFEDCFCE010E947A0632
:100E0000E7CFDF91CF91089580E090E0892B29F022
:100E10000E94700681110C940000089580E090E01B
:100E2000FC01E059FD4F1082118212821382049658
:100E300080339105A9F7089589E06BE977EFFB010D
:100E40003197F1F7FB013197F1F7FB013197F1F79A
:100E500040E752E020E030E0FA01E20FF31F808328
:100E60002C5F3F4F20333105B9F74F5F5F4F92E062
:100E70004437590779F7815011F7089581E06BE9FC
:100E800077EFFB013197F1F7FB013197F1F740E77D
:100E900052E020E030E0FA01E20FF31F80832C5F84
:100EA0003F4F20333105B9F74F5F5F4F92E0443732
:100EB000590779F78F5F893021F708950E94460B13
:100EC00040913E0150913F0120913C0130913D0104
:100ED00042175307B4F49091E8009570E1F39091B4
:100EE000E80092FD19C08093F10080913E0190913D
:100EF0003F0101968F739927892B19F48EEF809308
:100F0000E80080913E0190913F01019690933F014E
:100F100080933E0181E0089580E00895615030F0B3
:100F20002091F100FC0120830196F8CF289884E6F7
:100F30008093430108951F920F920FB60F921124D0
:100F40002F933F934F935F936F937F938F939F93D1
:100F5000AF93BF93EF93FF9385E491E00E947A06ED
:100F6000FF91EF91BF91AF919F918F917F916F9181
:100F70005F914F913F912F910F900FBE0F901F9057
:100F800018951F920F920FB60F9211242F938F93E3
:100F90009F93EF93FF93E0915501F091560180816B
:100FA000E0915B01F0915C0182FD12C09081809123
:100FB0005E018F5F8F7320915F01821751F0E09186
:100FC0005E01F0E0EB5BFE4F958F80935E0101C008
:100FD0008081FF91EF919F918F912F910F900FBE84
:100FE0000F901F9018953FB7F894809165029091EB
:100FF0006602A0916702B091680226B5A89B05C061
:101000002F3F19F00196A11DB11D3FBFBA2FA92F87
:10101000982F8827820F911DA11DB11DBC01CD0104
:1010200042E0660F771F881F991F4A95D1F70895F0
:101030001F920F920FB60F9211242F933F938F930D
:101040009F93AF93BF938091610290916202A091B0
:101050006302B09164023091600223E0230F2D37C8
:1010600020F40196A11DB11D05C026E8230F0296AC
:10107000A11DB11D209360028093610290936202D2
:10108000A0936302B093640280916502909166021E
:10109000A0916702B09168020196A11DB11D8093D5
:1010A000650290936602A0936702B0936802BF91B5
:1010B000AF919F918F913F912F910F900FBE0F9005
:1010C0001F9018951F920F920FB60F9211242F9315
:1010D0003F934F935F936F937F938F939F93AF93C0
:1010E000BF93EF93FF93E0916902F0916A02099533
:1010F000FF91EF91BF91AF919F918F917F916F91F0
:101100005F914F913F912F910F900FBE0F901F90C5
:101110001895EFEEF1E01382128288EE93E0A0E0E2
:10112000B0E084839583A683B7832BE131E03183DC
:1011300020832FEF3FEF35872487E5E4F1E013822A
:10114000128284839583A683B7838DE291E0918395
:1011500080838DEC90E0958784878CEC90E0978776
:10116000868788EC90E0918B808B89EC90E0938B64
:10117000828B8AEC90E0958B848B8EEC90E0978B41
:10118000868B118E128E138E148EE7E4F2E089E0C6
:1011900090E09183808388E090E09383828387E06E
:1011A00090E09583848386E090E0978386838AE04D
:1011B00090E09187808780E190E0938782878EE03E
:1011C00090E0958784878FE090E09787868782E11B
:1011D00090E0918B808B83E190E0938B828B84E114
:1011E00090E0958B848B85E190E0978B868BEFE385
:1011F000F2E082E090E09183808383E090E093834B
:10120000828384E090E09583848385E090E09783F7
:1012100086830895CF93DF931F92CDB7DEB778947E
:1012200084B5826084BD84B5816084BD85B58260EB
:1012300085BD85B5816085BD80916E00816080939C
:101240006E00109281008091810082608093810005
:101250008091810081608093810080918000816015
:1012600080938000809191008260809391008091B2
:1012700091008160809391008091900081608093C3
:1012800090008091C10084608093C1008091C10072
:1012900082608093C1008091C10081608093C10011
:1012A0008091C30081608093C3008091C000826000
:1012B0008093C0008091C20081608093C2008091C1
:1012C0007A00846080937A0080917A0082608093B3
:1012D0007A0080917A00816080937A0080917A0010
:1012E000806880937A00109244011092410110921C
:1012F00042018091D70081608093D70080EA80937B
:10130000D80089B5806189BD89B5826089BD09B47D
:1013100000FEFDCF0E9439028091D8008F7C806151
:101320008093D8008091E000807F8093E0008091DE
:10133000E1008E7E8093E1008DE08093E200559A7B
:10134000209AEEEFFFE7859194918B3F9C4D19F425
:1013500081E080934001E0915501F091560182E0D7
:101360008083E0915101F09152011082E09153018C
:10137000F09154018FEC808310925D01E09159014E
:10138000F0915A0186E08083E0915701F091580175
:10139000808180618083E0915701F09158018081C4
:1013A00088608083E0915701F091580180818068C6
:1013B0008083E0915701F091580180818F7D808377
:1013C0005998519A5898509A5C98549A46983E9ACF
:1013D0005F98579A76986E9A2C98249A2D98259A09
:1013E0002E98269A2A98229A2B98239A2998219AFD
:1013F0008F98879A8E98869A8D98859A8C98849AD9
:101400005F9876982C982D982E982A982B98299842
:101410008F988E988D988C98599858985C98469883
:101420000E940E0780E1809381001092800081E08D
:1014300080936D0228EC30E030936C0220936B02B5
:10144000309387002093860091E19093810025E7F7
:1014500035E030936A022093690280936F000E9406
:101460003E070E941C070E943E0788248394912C0B
:1014700000E110E072E1C72EE9E0FE2EF2E0EF2E6F
:10148000DD24D394A5E0BA2E2091A0022130A1F052
:1014900018F02230A9F15CC030910F0180E090E09B
:1014A000FC01E059FD4F308331833283338304964E
:1014B00080339105A9F74CC080910D0190910E01E8
:1014C0000196893B3BE0930724F190920E018092B4
:1014D0000D0140E752E080E090E0FA01E80FF91FCB
:1014E0003081332311F031503083019684309105DF
:1014F000A1F74C5F5F4F82E0403A580761F728C080
:1015000080910D0190910E010196893B3BE093077C
:101510002CF490930E0180930D011AC090920E014D
:1015200080920D0140E752E080E090E0FA01E80F80
:10153000F91F3081393010F43F5F308301968430D9
:101540009105A1F74C5F5F4F82E0403A580761F781
:1015500085E491E029830E946406181619060CF0B0
:1015600064C085E491E00E94420690936F028093EC
:101570006E02298184369105C9F480910F01823071
:1015800079F030F4813009F050C0E0920F014DC085
:10159000853049F0893009F048C0D0920F0145C02C
:1015A000B0920F0142C0F0920F013FC08536910505
:1015B000D1F4213089F058F02230B9F50E941C078F
:1015C0000E943E07F0920F011092A0022EC00E94CE
:1015D0001C07D092A00229C00E943E07F0920F0182
:1015E000E092A00222C084369105FCF4213029F05B
:1015F0002230D9F40E940E0718C09C0197FF02C048
:10160000215F3F4F44E0359527954A95E1F7B801B2
:101610000E94180BFC01FF27EE0FFF1FEE0FFF1FAC
:10162000E20FF11DE059FD4FC0820E9404072CCF4C
:1016300097FB072E16F4009407D077FD09D00E947F
:10164000320B07FC05D03EF4909581959F4F08958D
:10165000709561957F4F0895EE0FFF1F0590F491EF
:10166000E02D0994AA1BBB1B51E107C0AA1FBB1F99
:10167000A617B70710F0A61BB70B881F991F5A951E
:10168000A9F780959095BC01CD01089581E090E087
:0A169000F8940C944B0BF894FFCF74
:10169A00FFFFFFFF00E10000000000000101000958
:1016AA0000C18081000000000000002201530243B3
:1016BA00013801890147016501000000009B060409
:0C16CA00063306E20664064206560600DF
:00000001FF
