:100000000C94A9000C94D1000C94D1000C94D10054
:100010000C94D1000C94D1000C94D1000C94D1001C
:100020000C94D1000C94D1000C9416050C94880506
:100030000C94D1000C94D1000C94D1000C94D100FC
:100040000C94D1000C94D1000C94D1000C94D100EC
:100050000C945A080C94D1000C94D1000C94100804
:100060000C94D1000C94DE070C94B8070C94D100CA
:100070000C94D1000C94D1000C94D1000C94D100BC
:100080000C94D1000C94D1000C94D1000C94D100AC
:100090000C94D1000C94D1000C94D1000C94D1009C
:1000A0000C94D1000C94D1000C94D10081028302F5
:1000B0008502870289028B028D028F0291029302D0
:1000C00095029702EB02ED02EF02F102F302F50254
:1000D000F702F902FB02FD02FF020103080B000216
:1000E00002020100090400000102020000052400D0
:1000F0001001052401010104240206052406000163
:100100000705810310004009040100020A000000F5
:1001100007050202400000070583024000000403B7
:10012000090412010002EF0201404F1B0692000178
:1001300001020301537061726B46756E005370616A
:10014000726B46756E2050726F204D6963726F003E
:10015000810811241FBECFEFDAE0DEBFCDBF11E072
:10016000A0E0B1E0EEEDF5E102C005900D92AC33F8
:10017000B107D9F722E0ACE3B1E001C01D92A13A8A
:10018000B207E1F710E0C9EAD0E004C02197FE0110
:100190000E94CE0AC83AD107C9F70E9402090C94FE
:1001A000ED0A0C940000FC0180919301811103C0C1
:1001B0008FEF9FEF08959FB7F89482E08093E90056
:1001C0002091F20030E01216130614F421E030E022
:1001D0002115310559F0289884E680939201809189
:1001E000F10080838091F200882319F09FBFC9013C
:1001F00008958BE68093E800F9CF2FB7F89483E059
:100200008093E9009091E800892F807295FF04C0E7
:100210009091F20080E4891B2FBF089580918A019C
:1002200081110DC082E08093860184E08093870174
:10023000109289011092880181E080938A0186E8FA
:1002400091E00895CF93DF931F92CDB7DEB7698316
:10025000DC01ED91FC910280F381E02D41E050E062
:10026000BE016F5F7F4F09950F90DF91CF91089589
:1002700083E08093E9008091F200882319F08AE3FB
:100280008093E80008950E94FD0090E00895CF93C8
:10029000DF931F92CDB7DEB7FC018485958597FD6E
:1002A00005C02FEF3FEF358724870BC0CE010196A5
:1002B0000E94D300019719F4898190E002C08FEF6A
:1002C0009FEF0F90DF91CF9108950F931F93CF93DE
:1002D000DF931F92CDB7DEB78C01FC018485958535
:1002E00097FF0EC0CE0101960E94D300019719F42A
:1002F000298130E002C02FEF3FEFF80135872487D6
:10030000F801848595850F90DF91CF911F910F9112
:100310000895FC018485958597FD0BC09FB7F894DF
:1003200082E08093E9008091F2009FBF90E0019607
:1003300008959FB7F89482E08093E9008091F200DD
:100340009FBF90E0089540918001509181012091DC
:100350007E0130917F0142175307B4F49091E80079
:100360009570E1F39091E80092FD19C08093F1003F
:10037000809180019091810101968F739927892B3B
:1003800019F48EEF8093E8008091800190918101B3
:100390000196909381018093800181E0089580E02F
:1003A0000895CF92DF92EF92FF920F931F93CF9316
:1003B000DF931F92CDB7DEB7182F062FE42E862FBE
:1003C000880F8E5F99830E94A30183E00E94A3019E
:1003D000F12EC12E9981D92E8C2D8F19801798F46A
:1003E000F601E7FE02C0849101C080810E94A30152
:1003F000182F80E00E94A3018123FFEFCF1ADF0AAC
:100400008111EACF01C081E00F90DF91CF911F9160
:100410000F91FF90EF90DF90CF900895DF92EF92D1
:10042000FF920F931F93CF93DF93D82E8A017B0106
:10043000E40EF51EEB01CE15DF0571F0D7FE03C00B
:10044000FE01849101C088810E94A301219681113F
:10045000F2CF8FEF9FEF01C0C801DF91CF911F91C5
:100460000F91FF90EF90DF9008950F931F93CF931C
:10047000DF931F92CDB7DEB782E0898342E450E07C
:100480006CED70E080E80E940E020E940E01DC011B
:1004900012960D911C9113970115110569F0D80161
:1004A000ED91FC910280F381E02DBE016F5F7F4FE3
:1004B000C801099597FF07C089810F90DF91CF91FF
:1004C0001F910F910895F80100851185E5CF6150C6
:1004D00030F02091F100FC0120830196F8CF28989C
:1004E00084E680939201089580913E01482F50E068
:1004F0004C30510508F01CC0FA01EA5AFF4F0C9429
:10050000CE0A5F9815C0769813C02C9811C02D980C
:100510000FC02E980DC02A980BC02B9809C029989F
:1005200007C08F9805C08E9803C08D9801C08C9825
:100530008F5F8C3019F080933E010AC010923E010B
:10054000809100018F5F893008F081E08093000185
:10055000E0913E012091000184E0E89FA001112478
:1005600080E090E0DC01A40FB51FA25BBE4F3C9180
:10057000231788F48230910551F08330910549F0BA
:100580008130910511F0599816C0589814C05C98A4
:1005900012C0469810C08230910551F08330910509
:1005A00049F08130910511F0599A05C0589A03C05D
:1005B0005C9A01C0469A01968430910509F0D2CF29
:1005C0008E2F90E08C30910508F01CC0FC01EE5994
:1005D000FF4F0C94CE0A5F9A0895769A08952C9A4C
:1005E00008952D9A08952E9A08952A9A08952B9A7F
:1005F0000895299A08958F9A08958E9A08958D9A4C
:1006000008958C9A0895CF92DF92EF92FF920F9304
:100610001F93CF93DF936C017A018B01C0E0D0E090
:10062000CE15DF0589F0D8016D918D01D601ED91D0
:10063000FC910190F081E02DC6010995892B11F400
:100640007E0102C02196ECCFC701DF91CF911F91AF
:100650000F91FF90EF90DF90CF900895089580E084
:1006600090E00895FC01538D448D252F30E0842FB8
:1006700090E0821B930B541710F0CF9608950197CA
:100680000895FC01918D828D981761F0828DDF01B4
:10069000A80FB11D5D968C91928D9F5F9F73928F75
:1006A00090E008958FEF9FEF0895FC01918D828D6A
:1006B000981731F0828DE80FF11D858D90E0089537
:1006C0008FEF9FEF0895FC01918D228D892F90E08F
:1006D000805C9F4F821B91098F739927089584EE48
:1006E00091E00E94630321E0892B09F420E0822F2E
:1006F0000895FC01848DDF01A80FB11DA35ABF4FDF
:100700002C91848D90E001968F739927848FA68910
:10071000B7892C93A089B1898C9180648C93938D37
:10072000848D981306C00288F389E02D80818F7D27
:1007300080830895EF92FF920F931F93CF93DF93DF
:10074000EC0181E0888F9B8D8C8D981305C0E88922
:10075000F989808185FD24C0F62E0B8D10E00F5F96
:100760001F4F0F731127E02E8C8DE8120CC00FB6AF
:1007700007FCFACFE889F989808185FFF5CFCE01A2
:100780000E947903F1CF8B8DFE01E80FF11DE35A32
:10079000FF4FF0820B8FEA89FB898081806207C05E
:1007A000EE89FF896083E889F9898081806480838C
:1007B00081E090E0DF91CF911F910F91FF90EF903A
:1007C0000895CF93DF93EC01888D8823C9F0EA89DF
:1007D000FB89808185FD05C0A889B9898C9186FD3A
:1007E0000FC00FB607FCF5CF808185FFF2CFA88937
:1007F000B9898C9185FFEDCFCE010E947903E7CFB7
:10080000DF91CF91089580E090E0892B29F00E943C
:100810006F0381110C94000008953FB7F894809104
:10082000440190914501A0914601B091470126B540
:10083000A89B05C02F3F19F00196A11DB11D3FBF18
:10084000BA2FA92F982F8827820F911DA11DB11DA6
:10085000BC01CD0142E0660F771F881F991F4A95A2
:10086000D1F70895CF92DF92EF92FF920E940D048C
:100870006B017C010E940D04DC01CB018C199D09E8
:10088000AE09BF09883E9340A105B10598F3FF90DA
:10089000EF90DF90CF9008958F929F92AF92BF928A
:1008A000CF92DF92EF92FF920F931F93CF93DF933C
:1008B0006C015B017A0180911001882309F456C014
:1008C00080919301882309F451C08091850180FFB4
:1008D00005C08091E00082608093E000E70110E0B5
:1008E0000AEF83E0882E9AE3992E2097B1F10E94B7
:1008F000FD00811105C00150C9F10E943204F5CFFD
:10090000282F30E0C217D3070CF48C2F4FB7F89480
:100910008092E9009091E80095FF1DC0282F30E0FB
:10092000C21BD30BF501982F915020F08191809339
:10093000F100FACFA20EB31E112319F09092E80035
:1009400009C08091E80085FD06C09092E80011E0A2
:10095000209709F010E04FBFC8CF1111C8CF5D98A4
:1009600084E6809384011E141F0444F081E090E02B
:10097000F6019383828380E090E001C0C701DF919C
:10098000CF911F910F91FF90EF90DF90CF90BF908C
:10099000AF909F908F90089584EE91E00E94630342
:1009A000181619060CF03FC084EE91E00E94410336
:1009B00090933D0180933C018436910539F48091F8
:1009C00003018C5F8A3068F181E02BC08536910588
:1009D00031F4809104018F5F80930401089584367F
:1009E00091050CF5209104012130E9F49C0197FF59
:1009F00002C0215F3F4F44E0359527954A95E1F7C6
:100A000060E170E00E94BA0AFC01FF27EE0FFF1FB1
:100A1000EE0FFF1FE20FF11DE25BFE4F82E18083CC
:100A200008958093030108950E94E80A1F920F928F
:100A30000FB60F9211248F939F938091E1009091B4
:100A4000E100937F9093E10083FF0FC01092E900D3
:100A500091E09093EB001092EC0092E39093ED0004
:100A60001092930198E09093F00082FF20C093E0F1
:100A70009093E9009091F200992319F09AE39093F2
:100A8000E80090918401992339F09091840191506C
:100A900090938401992389F190919201992339F0DF
:100AA00090919201915090939201992341F184FF8A
:100AB00010C08091E2008E7E81608093E200809180
:100AC000E1008F7E8093E100809185018E7E8061C0
:100AD00011C080FF16C08091E2008E7E80618093FD
:100AE000E2008091E1008E7E8093E100809185019B
:100AF0008E7E81608093850104C05D9ACDCF289A57
:100B0000D6CF9F918F910F900FBE0F901F90189589
:100B10001F920F920FB60F921124CF92DF92EF9295
:100B2000FF920F931F932F933F934F935F936F9376
:100B30007F938F939F93AF93BF93EF93FF93CF9345
:100B4000DF93CDB7DEB76C97DEBFCDBF1092E90063
:100B50008091E80083FFEDC168E0CE0145960E94D8
:100B6000670282EF8093E8008D8987FF05C090912E
:100B7000E80090FFFCCF03C09EEF9093E800982F11
:100B8000907609F0C6C09E892F89188D91110CC0EE
:100B9000803829F4809183018093F10002C0109283
:100BA000F1001092F10048C1422F50E0512B9130DA
:100BB00051F4811141C14130510509F03DC180918D
:100BC00083018D7F0BC0933061F4811135C14130B9
:100BD000510509F031C180918301826080938301C6
:100BE0002BC1953041F48091E80080FFFCCF206854
:100BF0002093E30021C1963009F05FC0EB8CFC8CA0
:100C00001092E9001092810110928001123091F54A
:100C100010927F0110927E010E94350299E0BE0180
:100C20006F5F7F4FDB01E92F1D92EA95E9F799830A
:100C30001A8391E09E8390EA98879AEF9987209192
:100C4000800130918101275F3F4F3C832B838D834F
:100C50001092E9001092810110928001F0927F01C0
:100C6000E0927E0149E050E080E00E940E020E9486
:100C70003502E2C0F0927F01E0927E010E940E01F7
:100C8000DC011296ED90FC901397E114F10409F445
:100C9000C0C0D701ED91FC910480F581E02DBE012B
:100CA0006B5E7F4FC7010995009719F00CF0C4C027
:100CB000C7C0F701E084F184E8CF973009F4C0C0E1
:100CC000983021F481E08093F100B6C0993009F0AA
:100CD000B3C0837009F0B4C0E2E1F1E081E021E04B
:100CE00036E39081992361F08093E9002093EB0033
:100CF00091919093EC003093ED008F5F873089F7EE
:100D00008EE78093EA001092EA008F898093930126
:100D100093C08B8D9C8D1092E900109281011092EE
:100D2000800190937F0180937E01898D811156C04F
:100D30008E899D89913A59F4813209F081C047E04A
:100D400050E069E071E080E00E940E0275C09132CF
:100D500009F076C0833289F4888D90E0982F882737
:100D60002F89822BA0E0B0E08093050190930601CB
:100D7000A0930701B09308015FC0803269F48091AD
:100D8000E80082FFFCCF67E089E091E00E94670203
:100D90008BEF8093E80006C0823209F04DC08F8946
:100DA0008093100180918201882319F0EEEFFAE020
:100DB00002C0E0E0F8E08091090190910A01A09161
:100DC0000B01B0910C01803B9440A105B10509F0E5
:100DD0007BC08091100180FF93C076C00E940E01FD
:100DE000DC0112960D911C9113970115110541F12B
:100DF000D801ED91FC910190F081E02DBE016B5E78
:100E00007F4FC8010995811117C0F8010085118530
:100E1000ECCF113009F44EC0133091F48F89882340
:100E200009F445C0823081F440E862E18DE391E04D
:100E30000E94D101882321F08EEF8093E80079C0D1
:100E400081E28093EB0075C0813029F440E868E0CE
:100E500084E391E0EDCF833099F70E940E01DC012D
:100E60001296ED90FC9013978E010F5F1F4F680153
:100E7000E114F10479F0D701ED91FC910680F7813E
:100E8000E02DB801C7010995080F111DF701E08495
:100E9000F184EECFD8011C92F60101900020E9F711
:100EA0003197BF016C197D0940E0C601C1CF6EE1E9
:100EB00071E002C062E271E06115710509F2FB01A7
:100EC000449150E080E840CF0FB6F894A895809107
:100ED0006000886180936000109260000FBEA8954A
:100EE000EE3F2AE0F20739F08091FE0A9091FF0A66
:100EF00091838083A1CF1092FF0A1092FE0A9CCFAB
:100F0000EE3F8AE0F80731F0808191819093FF0AEB
:100F10008093FE0A87E797E7918380839BE088E1CF
:100F20000FB6F894A895809360000FBE9093600070
:100F300083CF6C960FB6F894DEBF0FBECDBFDF91A6
:100F4000CF91FF91EF91BF91AF919F918F917F9141
:100F50006F915F914F913F912F911F910F91FF9052
:100F6000EF90DF90CF900F900FBE0F901F901895CD
:100F70001F920F920FB60F9211242F933F934F930E
:100F80005F936F937F938F939F93AF93BF93EF93F1
:100F9000FF9384EE91E00E947903FF91EF91BF915E
:100FA000AF919F918F917F916F915F914F913F9101
:100FB0002F910F900FBE0F901F9018951F920F92B8
:100FC0000FB60F9211242F938F939F93EF93FF935C
:100FD000E091F401F091F5018081E091FA01F09146
:100FE000FB0182FD12C090818091FD018F5F8F73A4
:100FF0002091FE01821751F0E091FD01F0E0EC51EB
:10100000FE4F958F8093FD0101C08081FF91EF918C
:101010009F918F912F910F900FBE0F901F90189559
:101020001F920F920FB60F9211242F933F938F931D
:101030009F93AF93BF938091400190914101A09104
:101040004201B091430130913F0123E0230F2D373E
:1010500020F40196A11DB11D05C026E8230F0296BC
:10106000A11DB11D20933F01809340019093410148
:10107000A0934201B09343018091440190914501B6
:10108000A0914601B09147010196A11DB11D809329
:10109000440190934501A0934601B0934701BF914D
:1010A000AF919F918F913F912F910F900FBE0F9015
:1010B0001F9018951F920F920FB60F9211242F9325
:1010C0003F934F935F936F937F938F939F93AF93D0
:1010D000BF93EF93FF93E0914801F0914901099587
:1010E000FF91EF91BF91AF919F918F917F916F9100
:1010F0005F914F913F912F910F900FBE0F901F90D6
:101100001895E4E9F1E01382128288EE93E0A0E002
:10111000B0E084839583A683B7832CE131E03183EB
:1011200020832FEF3FEF35872487E4EEF1E0138231
:10113000128284839583A683B7838EE291E09183A4
:1011400080838DEC90E0958784878CEC90E0978786
:10115000868788EC90E0918B808B89EC90E0938B74
:10116000828B8AEC90E0958B848B8EEC90E0978B51
:10117000868B118E128E138E148EE9E8F2E089E0D0
:1011800090E09183808388E090E09383828387E07E
:1011900090E09583848386E090E0978386838AE05D
:1011A00090E09187808780E190E0938782878EE04E
:1011B00090E0958784878FE090E09787868782E12B
:1011C00090E0918B808B83E190E0938B828B84E124
:1011D00090E0958B848B85E190E0978B868BE1E89E
:1011E000F2E082E090E09183808383E090E093835B
:1011F000828384E090E09583848385E090E0978308
:1012000086830895789484B5826084BD84B58160B6
:1012100084BD85B5826085BD85B5816085BD8091C1
:101220006E00816080936E00109281008091810039
:101230008260809381008091810081608093810031
:101240008091800081608093800080919100826015
:1012500080939100809191008160809391008091B2
:1012600090008160809390008091C10084608093A1
:10127000C1008091C10082608093C1008091C10053
:1012800081608093C1008091C30081608093C3001E
:101290008091C00082608093C0008091C200816014
:1012A0008093C20080917A00846080937A0080915C
:1012B0007A00826080937A0080917A0081608093C6
:1012C0007A0080917A00806880937A00109293016E
:1012D00010928301109285018091D70081608093E4
:1012E000D70080EA8093D80089B5806189BD89B52F
:1012F000826089BD09B400FEFDCF0E943204809156
:10130000D8008F7C80618093D8008091E000807F3E
:101310008093E0008091E1008E7E8093E1008DE07B
:101320008093E200559A209AEEEFFFE78591949121
:101330008B3F9C4D19F481E080938201E091F40190
:10134000F091F50182E08083E091F001F091F101EC
:101350001082E091F201F091F3018FEC8083109202
:10136000FC01E091F801F091F90186E08083E091C1
:10137000F601F091F701808180618083E091F601B0
:10138000F091F701808188608083E091F601F0910F
:10139000F701808180688083E091F601F091F70188
:1013A00080818F7D80835998519A5898509A5C9883
:1013B000549A46983E9A5F98579A76986E9A2C98C7
:1013C000249A2D98259A2E98269A2A98229A2B9814
:1013D000239A2998219A8F98879A8E98869A8D9821
:1013E000859A8C98849A5F9876982C982D982E9848
:1013F0002A982B9829988F988E988D988C98599820
:1014000058985C98469880E090E0FC01E25BFE4FC3
:101410001082118212821382049680339105A9F7FB
:1014200080E1809381001092800081E080934C01E4
:1014300028EC30E030934B0120934A013093870031
:101440002093860091E19093810024E732E030936D
:1014500049012093480180936F00E5E0F0E02BE91B
:1014600037EF81E0D9011197F1F7D9011197F1F721
:101470006EE471E040E050E0DB01A40FB51F8C93F7
:101480004C5F5F4F40335105B9F76F5F7F4F91E07D
:101490006235790779F78F5F893021F7D901119784
:1014A000F1F7D9011197F1F7D9011197F1F76EE42E
:1014B00071E040E050E0DB01A40FB51F8C934C5F5E
:1014C0005F4F40335105B9F76F5F7F4F91E0623551
:1014D000790779F7815011F7319709F0C2CFC1E050
:1014E000D0E080910401882319F0813099F03BC04D
:1014F0002091030180E090E0FC01E25BFE4F20833D
:10150000218322832383049680339105A9F70E94C7
:10151000CC042BC080910101909102010196893B7E
:101520002BE09207DCF0D0930201C09301012EE47E
:1015300031E080E090E0F901E80FF91F4081442399
:1015400011F041504083019684309105A1F72C5F42
:101550003F4F81E02E37380761F7D9CF90930201D2
:1015600080930101D4CF1092040110924D010E948A
:101570000304B7CF97FB072E16F4009407D077FD2E
:1015800009D00E94D40A07FC05D03EF490958195BD
:101590009F4F0895709561957F4F0895EE0FFF1F3F
:1015A0000590F491E02D0994AA1BBB1B51E107C0E3
:1015B000AA1FBB1FA617B70710F0A61BB70B881FE3
:1015C000991F5A95A9F780959095BC01CD01089572
:0E15D00081E090E0F8940C94ED0AF894FFCFBF
:1015DE000101000201FFFFFFFF00E100000000001B
:1015EE000000C180810000000000000022014C04B8
:1015FE0043013801890147016501000000009A038B
:0C160E0003033203E103630341035503AF
:00000001FF
